{
  "contractName": "MockSimpleContract",
  "abi": [
    {
      "inputs": [
        {
          "internalType": "string",
          "name": "_name",
          "type": "string"
        }
      ],
      "name": "addKucing",
      "outputs": [],
      "stateMutability": "nonpayable",
      "type": "function"
    },
    {
      "inputs": [],
      "name": "data",
      "outputs": [
        {
          "internalType": "string",
          "name": "",
          "type": "string"
        }
      ],
      "stateMutability": "view",
      "type": "function"
    },
    {
      "inputs": [],
      "name": "getData",
      "outputs": [
        {
          "internalType": "string",
          "name": "",
          "type": "string"
        }
      ],
      "stateMutability": "view",
      "type": "function"
    },
    {
      "inputs": [],
      "name": "receiveFund",
      "outputs": [],
      "stateMutability": "nonpayable",
      "type": "function"
    },
    {
      "inputs": [],
      "name": "salam",
      "outputs": [
        {
          "internalType": "string",
          "name": "",
          "type": "string"
        }
      ],
      "stateMutability": "pure",
      "type": "function"
    },
    {
      "inputs": [
        {
          "internalType": "string",
          "name": "_data",
          "type": "string"
        }
      ],
      "name": "setData",
      "outputs": [],
      "stateMutability": "nonpayable",
      "type": "function"
    },
    {
      "inputs": [],
      "name": "totalKucing",
      "outputs": [
        {
          "internalType": "uint256",
          "name": "_totalKucing",
          "type": "uint256"
        }
      ],
      "stateMutability": "view",
      "type": "function"
    },
    {
      "inputs": [],
      "name": "mock_FundTo5Dollar",
      "outputs": [],
      "stateMutability": "nonpayable",
      "type": "function"
    }
  ],
  "bytecode": "0x608060405260006001556000600255600460035534801561001f57600080fd5b50610ac88061002f6000396000f3fe608060405234801561001057600080fd5b50600436106100885760003560e01c806373d4a13a1161005b57806373d4a13a146100ef578063b9977dc41461010d578063ba59d9ff14610117578063cc2c5b361461013557610088565b80631aa2bfd41461008d5780631f664f40146100ab5780633bc5de30146100b557806347064d6a146100d3575b600080fd5b610095610151565b6040516100a2919061043e565b60405180910390f35b6100b361015e565b005b6100bd6101b1565b6040516100ca91906104e9565b60405180910390f35b6100ed60048036038101906100e89190610654565b610243565b005b6100f7610256565b60405161010491906104e9565b60405180910390f35b6101156102e4565b005b61011f610367565b60405161012c91906104e9565b60405180910390f35b61014f600480360381019061014a9190610654565b6103a4565b005b6000600480549050905090565b600480549050600354116101a7576040517f08c379a000000000000000000000000000000000000000000000000000000000815260040161019e906106e9565b60405180910390fd5b6005600281905550565b6060600080546101c090610738565b80601f01602080910402602001604051908101604052809291908181526020018280546101ec90610738565b80156102395780601f1061020e57610100808354040283529160200191610239565b820191906000526020600020905b81548152906001019060200180831161021c57829003601f168201915b5050505050905090565b80600090816102529190610915565b5050565b6000805461026390610738565b80601f016020809104026020016040519081016040528092919081815260200182805461028f90610738565b80156102dc5780601f106102b1576101008083540402835291602001916102dc565b820191906000526020600020905b8154815290600101906020018083116102bf57829003601f168201915b505050505081565b6004805490506003541161032d576040517f08c379a0000000000000000000000000000000000000000000000000000000008152600401610324906106e9565b60405180910390fd5b600480549050600360008282546103449190610a16565b9250508190555060056002600082825461035e9190610a16565b92505081905550565b60606040518060400160405280601481526020017f417373616c616d756c61696b756d7e44756e6961000000000000000000000000815250905090565b60006040518060400160405280838152602001600160008154809291906103ca90610a4a565b919050558152509050600481908060018154018082558091505060019003906000526020600020906002020160009091909190915060008201518160000190816104149190610915565b506020820151816001015550505050565b6000819050919050565b61043881610425565b82525050565b6000602082019050610453600083018461042f565b92915050565b600081519050919050565b600082825260208201905092915050565b60005b83811015610493578082015181840152602081019050610478565b60008484015250505050565b6000601f19601f8301169050919050565b60006104bb82610459565b6104c58185610464565b93506104d5818560208601610475565b6104de8161049f565b840191505092915050565b6000602082019050818103600083015261050381846104b0565b905092915050565b6000604051905090565b600080fd5b600080fd5b600080fd5b600080fd5b7f4e487b7100000000000000000000000000000000000000000000000000000000600052604160045260246000fd5b6105618261049f565b810181811067ffffffffffffffff821117156105805761057f610529565b5b80604052505050565b600061059361050b565b905061059f8282610558565b919050565b600067ffffffffffffffff8211156105bf576105be610529565b5b6105c88261049f565b9050602081019050919050565b82818337600083830152505050565b60006105f76105f2846105a4565b610589565b90508281526020810184848401111561061357610612610524565b5b61061e8482856105d5565b509392505050565b600082601f83011261063b5761063a61051f565b5b813561064b8482602086016105e4565b91505092915050565b60006020828403121561066a57610669610515565b5b600082013567ffffffffffffffff8111156106885761068761051a565b5b61069484828501610626565b91505092915050565b7f4e6f7420456e7566204361747300000000000000000000000000000000000000600082015250565b60006106d3600d83610464565b91506106de8261069d565b602082019050919050565b60006020820190508181036000830152610702816106c6565b9050919050565b7f4e487b7100000000000000000000000000000000000000000000000000000000600052602260045260246000fd5b6000600282049050600182168061075057607f821691505b60208210810361076357610762610709565b5b50919050565b60008190508160005260206000209050919050565b60006020601f8301049050919050565b600082821b905092915050565b6000600883026107cb7fffffffffffffffffffffffffffffffffffffffffffffffffffffffffffffffff8261078e565b6107d5868361078e565b95508019841693508086168417925050509392505050565b6000819050919050565b600061081261080d61080884610425565b6107ed565b610425565b9050919050565b6000819050919050565b61082c836107f7565b61084061083882610819565b84845461079b565b825550505050565b600090565b610855610848565b610860818484610823565b505050565b5b818110156108845761087960008261084d565b600181019050610866565b5050565b601f8211156108c95761089a81610769565b6108a38461077e565b810160208510156108b2578190505b6108c66108be8561077e565b830182610865565b50505b505050565b600082821c905092915050565b60006108ec600019846008026108ce565b1980831691505092915050565b600061090583836108db565b9150826002028217905092915050565b61091e82610459565b67ffffffffffffffff81111561093757610936610529565b5b6109418254610738565b61094c828285610888565b600060209050601f83116001811461097f576000841561096d578287015190505b61097785826108f9565b8655506109df565b601f19841661098d86610769565b60005b828110156109b557848901518255600182019150602085019450602081019050610990565b868310156109d257848901516109ce601f8916826108db565b8355505b6001600288020188555050505b505050505050565b7f4e487b7100000000000000000000000000000000000000000000000000000000600052601160045260246000fd5b6000610a2182610425565b9150610a2c83610425565b9250828201905080821115610a4457610a436109e7565b5b92915050565b6000610a5582610425565b91507fffffffffffffffffffffffffffffffffffffffffffffffffffffffffffffffff8203610a8757610a866109e7565b5b60018201905091905056fea26469706673582212202ce0e24da73eeec90a0ed8193559142f942afdda10076963ee57f5496f8dc3e864736f6c63430008110033",
  "immutableReferences": {},
  "source": "// SPDX-License-Identifier: GPL-3.0\nimport \"../SimpleContract.sol\";\npragma solidity >=0.7.0 <0.9.0;\n\ncontract MockSimpleContract is SimpleContract {\n    function mock_FundTo5Dollar() external checkFund {\n        //add 5 dollar to receive first Fund Only\n        fund = 5;\n    }\n}\n",
  "sourcePath": "/Applications/ProjectsApp/sandbox/sandbox_solidity/contracts/tests/MockSimpleContract.sol",
  "compiler": {
    "name": "solc",
    "version": "0.8.17+commit.8df45f5f.Emscripten.clang"
  },
  "schemaVersion": "3.4.11",
  "updatedAt": "2022-11-29T13:12:33.102Z",
  "devdoc": {
    "kind": "dev",
    "methods": {},
    "version": 1
  },
  "userdoc": {
    "kind": "user",
    "methods": {},
    "version": 1
  }
}