{
  "contractName": "MockSimpleContract",
  "abi": [
    {
      "inputs": [
        {
          "internalType": "string",
          "name": "_name",
          "type": "string"
        }
      ],
      "name": "addKucing",
      "outputs": [],
      "stateMutability": "nonpayable",
      "type": "function"
    },
    {
      "inputs": [],
      "name": "data",
      "outputs": [
        {
          "internalType": "string",
          "name": "",
          "type": "string"
        }
      ],
      "stateMutability": "view",
      "type": "function",
      "constant": true
    },
    {
      "inputs": [],
      "name": "fund",
      "outputs": [
        {
          "internalType": "uint256",
          "name": "",
          "type": "uint256"
        }
      ],
      "stateMutability": "view",
      "type": "function",
      "constant": true
    },
    {
      "inputs": [],
      "name": "getData",
      "outputs": [
        {
          "internalType": "string",
          "name": "",
          "type": "string"
        }
      ],
      "stateMutability": "view",
      "type": "function",
      "constant": true
    },
    {
      "inputs": [],
      "name": "receiveFund",
      "outputs": [],
      "stateMutability": "nonpayable",
      "type": "function"
    },
    {
      "inputs": [],
      "name": "salam",
      "outputs": [
        {
          "internalType": "string",
          "name": "",
          "type": "string"
        }
      ],
      "stateMutability": "pure",
      "type": "function",
      "constant": true
    },
    {
      "inputs": [
        {
          "internalType": "string",
          "name": "_data",
          "type": "string"
        }
      ],
      "name": "setData",
      "outputs": [],
      "stateMutability": "nonpayable",
      "type": "function"
    },
    {
      "inputs": [
        {
          "internalType": "uint8",
          "name": "num",
          "type": "uint8"
        }
      ],
      "name": "setFakeTotalKucing",
      "outputs": [],
      "stateMutability": "nonpayable",
      "type": "function"
    },
    {
      "inputs": [],
      "name": "getFakeTotalKucing",
      "outputs": [
        {
          "internalType": "uint8",
          "name": "_fakeTotalKucing",
          "type": "uint8"
        }
      ],
      "stateMutability": "view",
      "type": "function",
      "constant": true
    },
    {
      "inputs": [],
      "name": "totalKucing",
      "outputs": [
        {
          "internalType": "uint256",
          "name": "_totalKucing",
          "type": "uint256"
        }
      ],
      "stateMutability": "view",
      "type": "function",
      "constant": true
    }
  ],
  "bytecode": "0x60806040526000600155600060025560046003556000600560006101000a81548160ff021916908360ff16021790555034801561003b57600080fd5b50610bb58061004b6000396000f3fe608060405234801561001057600080fd5b506004361061009e5760003560e01c8063b60d428811610066578063b60d428814610135578063b9977dc414610153578063ba59d9ff1461015d578063ca1cc8bc1461017b578063cc2c5b36146101995761009e565b80630ba1ffa8146100a35780631aa2bfd4146100bf5780633bc5de30146100dd57806347064d6a146100fb57806373d4a13a14610117575b600080fd5b6100bd60048036038101906100b891906104cf565b6101b5565b005b6100c76101d3565b6040516100d49190610515565b60405180910390f35b6100e56101ed565b6040516100f291906105c0565b60405180910390f35b61011560048036038101906101109190610717565b61027f565b005b61011f610292565b60405161012c91906105c0565b60405180910390f35b61013d610320565b60405161014a9190610515565b60405180910390f35b61015b610326565b005b6101656103ad565b60405161017291906105c0565b60405180910390f35b6101836103ea565b604051610190919061076f565b60405180910390f35b6101b360048036038101906101ae9190610717565b610401565b005b80600560006101000a81548160ff021916908360ff16021790555050565b6000600560009054906101000a900460ff1660ff16905090565b6060600080546101fc906107b9565b80601f0160208091040260200160405190810160405280929190818152602001828054610228906107b9565b80156102755780601f1061024a57610100808354040283529160200191610275565b820191906000526020600020905b81548152906001019060200180831161025857829003601f168201915b5050505050905090565b806000908161028e9190610996565b5050565b6000805461029f906107b9565b80601f01602080910402602001604051908101604052809291908181526020018280546102cb906107b9565b80156103185780601f106102ed57610100808354040283529160200191610318565b820191906000526020600020905b8154815290600101906020018083116102fb57829003601f168201915b505050505081565b60025481565b61032e6101d3565b60035410610371576040517f08c379a000000000000000000000000000000000000000000000000000000000815260040161036890610ab4565b60405180910390fd5b6103796101d3565b6003600082825461038a9190610b03565b925050819055506005600260008282546103a49190610b03565b92505081905550565b60606040518060400160405280601481526020017f417373616c616d756c61696b756d7e44756e6961000000000000000000000000815250905090565b6000600560009054906101000a900460ff16905090565b600060405180604001604052808381526020016001600081548092919061042790610b37565b919050558152509050600481908060018154018082558091505060019003906000526020600020906002020160009091909190915060008201518160000190816104719190610996565b506020820151816001015550505050565b6000604051905090565b600080fd5b600080fd5b600060ff82169050919050565b6104ac81610496565b81146104b757600080fd5b50565b6000813590506104c9816104a3565b92915050565b6000602082840312156104e5576104e461048c565b5b60006104f3848285016104ba565b91505092915050565b6000819050919050565b61050f816104fc565b82525050565b600060208201905061052a6000830184610506565b92915050565b600081519050919050565b600082825260208201905092915050565b60005b8381101561056a57808201518184015260208101905061054f565b60008484015250505050565b6000601f19601f8301169050919050565b600061059282610530565b61059c818561053b565b93506105ac81856020860161054c565b6105b581610576565b840191505092915050565b600060208201905081810360008301526105da8184610587565b905092915050565b600080fd5b600080fd5b7f4e487b7100000000000000000000000000000000000000000000000000000000600052604160045260246000fd5b61062482610576565b810181811067ffffffffffffffff82111715610643576106426105ec565b5b80604052505050565b6000610656610482565b9050610662828261061b565b919050565b600067ffffffffffffffff821115610682576106816105ec565b5b61068b82610576565b9050602081019050919050565b82818337600083830152505050565b60006106ba6106b584610667565b61064c565b9050828152602081018484840111156106d6576106d56105e7565b5b6106e1848285610698565b509392505050565b600082601f8301126106fe576106fd6105e2565b5b813561070e8482602086016106a7565b91505092915050565b60006020828403121561072d5761072c61048c565b5b600082013567ffffffffffffffff81111561074b5761074a610491565b5b610757848285016106e9565b91505092915050565b61076981610496565b82525050565b60006020820190506107846000830184610760565b92915050565b7f4e487b7100000000000000000000000000000000000000000000000000000000600052602260045260246000fd5b600060028204905060018216806107d157607f821691505b6020821081036107e4576107e361078a565b5b50919050565b60008190508160005260206000209050919050565b60006020601f8301049050919050565b600082821b905092915050565b60006008830261084c7fffffffffffffffffffffffffffffffffffffffffffffffffffffffffffffffff8261080f565b610856868361080f565b95508019841693508086168417925050509392505050565b6000819050919050565b600061089361088e610889846104fc565b61086e565b6104fc565b9050919050565b6000819050919050565b6108ad83610878565b6108c16108b98261089a565b84845461081c565b825550505050565b600090565b6108d66108c9565b6108e18184846108a4565b505050565b5b81811015610905576108fa6000826108ce565b6001810190506108e7565b5050565b601f82111561094a5761091b816107ea565b610924846107ff565b81016020851015610933578190505b61094761093f856107ff565b8301826108e6565b50505b505050565b600082821c905092915050565b600061096d6000198460080261094f565b1980831691505092915050565b6000610986838361095c565b9150826002028217905092915050565b61099f82610530565b67ffffffffffffffff8111156109b8576109b76105ec565b5b6109c282546107b9565b6109cd828285610909565b600060209050601f831160018114610a0057600084156109ee578287015190505b6109f8858261097a565b865550610a60565b601f198416610a0e866107ea565b60005b82811015610a3657848901518255600182019150602085019450602081019050610a11565b86831015610a535784890151610a4f601f89168261095c565b8355505b6001600288020188555050505b505050505050565b7f4e6f7420456e7566204361747300000000000000000000000000000000000000600082015250565b6000610a9e600d8361053b565b9150610aa982610a68565b602082019050919050565b60006020820190508181036000830152610acd81610a91565b9050919050565b7f4e487b7100000000000000000000000000000000000000000000000000000000600052601160045260246000fd5b6000610b0e826104fc565b9150610b19836104fc565b9250828201905080821115610b3157610b30610ad4565b5b92915050565b6000610b42826104fc565b91507fffffffffffffffffffffffffffffffffffffffffffffffffffffffffffffffff8203610b7457610b73610ad4565b5b60018201905091905056fea2646970667358221220c16482402ad5a4d4a7791ace90052809cfaf9367f0ec89a9eab02572544f49fe64736f6c63430008110033",
  "immutableReferences": {},
  "source": "// SPDX-License-Identifier: GPL-3.0\nimport \"../SimpleContract.sol\";\npragma solidity >=0.7.0 <0.9.0;\n\ncontract MockSimpleContract is SimpleContract {\n\n    uint8 fakeTotalKucing = 0;\n\n    function setFakeTotalKucing(uint8 num) public {\n        fakeTotalKucing = num;\n    }\n\n    function getFakeTotalKucing() view public returns (uint8 _fakeTotalKucing) {\n        return fakeTotalKucing;\n    }\n\n    function totalKucing() override  public view returns (uint256 _totalKucing) {\n        return fakeTotalKucing;\n    }\n}\n",
  "sourcePath": "/Applications/ProjectsApp/sandbox/sandbox_solidity/contracts/tests/MockSimpleContract.sol",
  "compiler": {
    "name": "solc",
    "version": "0.8.17+commit.8df45f5f.Emscripten.clang"
  },
  "schemaVersion": "3.4.11",
  "updatedAt": "2022-11-30T10:12:12.517Z",
  "networkType": "ethereum",
  "devdoc": {
    "kind": "dev",
    "methods": {},
    "version": 1
  },
  "userdoc": {
    "kind": "user",
    "methods": {},
    "version": 1
  }
}