{
  "contractName": "SimpleContract",
  "abi": [
    {
      "inputs": [],
      "name": "data",
      "outputs": [
        {
          "internalType": "string",
          "name": "",
          "type": "string"
        }
      ],
      "stateMutability": "view",
      "type": "function",
      "constant": true
    },
    {
      "inputs": [],
      "name": "fund",
      "outputs": [
        {
          "internalType": "uint256",
          "name": "",
          "type": "uint256"
        }
      ],
      "stateMutability": "view",
      "type": "function",
      "constant": true
    },
    {
      "inputs": [
        {
          "internalType": "string",
          "name": "_data",
          "type": "string"
        }
      ],
      "name": "setData",
      "outputs": [],
      "stateMutability": "nonpayable",
      "type": "function"
    },
    {
      "inputs": [],
      "name": "getData",
      "outputs": [
        {
          "internalType": "string",
          "name": "",
          "type": "string"
        }
      ],
      "stateMutability": "view",
      "type": "function",
      "constant": true
    },
    {
      "inputs": [
        {
          "internalType": "string",
          "name": "_name",
          "type": "string"
        }
      ],
      "name": "addKucing",
      "outputs": [],
      "stateMutability": "nonpayable",
      "type": "function"
    },
    {
      "inputs": [],
      "name": "receiveFund",
      "outputs": [],
      "stateMutability": "nonpayable",
      "type": "function"
    },
    {
      "inputs": [],
      "name": "totalKucing",
      "outputs": [
        {
          "internalType": "uint256",
          "name": "_totalKucing",
          "type": "uint256"
        }
      ],
      "stateMutability": "view",
      "type": "function",
      "constant": true
    },
    {
      "inputs": [],
      "name": "salam",
      "outputs": [
        {
          "internalType": "string",
          "name": "",
          "type": "string"
        }
      ],
      "stateMutability": "pure",
      "type": "function",
      "constant": true
    }
  ],
  "bytecode": "0x608060405260006001556000600255600460035534801561001f57600080fd5b50610a938061002f6000396000f3fe608060405234801561001057600080fd5b50600436106100885760003560e01c8063b60d42881161005b578063b60d428814610103578063b9977dc414610121578063ba59d9ff1461012b578063cc2c5b361461014957610088565b80631aa2bfd41461008d5780633bc5de30146100ab57806347064d6a146100c957806373d4a13a146100e5575b600080fd5b610095610165565b6040516100a29190610409565b60405180910390f35b6100b3610172565b6040516100c091906104b4565b60405180910390f35b6100e360048036038101906100de919061061f565b610204565b005b6100ed610217565b6040516100fa91906104b4565b60405180910390f35b61010b6102a5565b6040516101189190610409565b60405180910390f35b6101296102ab565b005b610133610332565b60405161014091906104b4565b60405180910390f35b610163600480360381019061015e919061061f565b61036f565b005b6000600480549050905090565b60606000805461018190610697565b80601f01602080910402602001604051908101604052809291908181526020018280546101ad90610697565b80156101fa5780601f106101cf576101008083540402835291602001916101fa565b820191906000526020600020905b8154815290600101906020018083116101dd57829003601f168201915b5050505050905090565b80600090816102139190610874565b5050565b6000805461022490610697565b80601f016020809104026020016040519081016040528092919081815260200182805461025090610697565b801561029d5780601f106102725761010080835404028352916020019161029d565b820191906000526020600020905b81548152906001019060200180831161028057829003601f168201915b505050505081565b60025481565b6102b3610165565b600354106102f6576040517f08c379a00000000000000000000000000000000000000000000000000000000081526004016102ed90610992565b60405180910390fd5b6102fe610165565b6003600082825461030f91906109e1565b9250508190555060056002600082825461032991906109e1565b92505081905550565b60606040518060400160405280601481526020017f417373616c616d756c61696b756d7e44756e6961000000000000000000000000815250905090565b600060405180604001604052808381526020016001600081548092919061039590610a15565b919050558152509050600481908060018154018082558091505060019003906000526020600020906002020160009091909190915060008201518160000190816103df9190610874565b506020820151816001015550505050565b6000819050919050565b610403816103f0565b82525050565b600060208201905061041e60008301846103fa565b92915050565b600081519050919050565b600082825260208201905092915050565b60005b8381101561045e578082015181840152602081019050610443565b60008484015250505050565b6000601f19601f8301169050919050565b600061048682610424565b610490818561042f565b93506104a0818560208601610440565b6104a98161046a565b840191505092915050565b600060208201905081810360008301526104ce818461047b565b905092915050565b6000604051905090565b600080fd5b600080fd5b600080fd5b600080fd5b7f4e487b7100000000000000000000000000000000000000000000000000000000600052604160045260246000fd5b61052c8261046a565b810181811067ffffffffffffffff8211171561054b5761054a6104f4565b5b80604052505050565b600061055e6104d6565b905061056a8282610523565b919050565b600067ffffffffffffffff82111561058a576105896104f4565b5b6105938261046a565b9050602081019050919050565b82818337600083830152505050565b60006105c26105bd8461056f565b610554565b9050828152602081018484840111156105de576105dd6104ef565b5b6105e98482856105a0565b509392505050565b600082601f830112610606576106056104ea565b5b81356106168482602086016105af565b91505092915050565b600060208284031215610635576106346104e0565b5b600082013567ffffffffffffffff811115610653576106526104e5565b5b61065f848285016105f1565b91505092915050565b7f4e487b7100000000000000000000000000000000000000000000000000000000600052602260045260246000fd5b600060028204905060018216806106af57607f821691505b6020821081036106c2576106c1610668565b5b50919050565b60008190508160005260206000209050919050565b60006020601f8301049050919050565b600082821b905092915050565b60006008830261072a7fffffffffffffffffffffffffffffffffffffffffffffffffffffffffffffffff826106ed565b61073486836106ed565b95508019841693508086168417925050509392505050565b6000819050919050565b600061077161076c610767846103f0565b61074c565b6103f0565b9050919050565b6000819050919050565b61078b83610756565b61079f61079782610778565b8484546106fa565b825550505050565b600090565b6107b46107a7565b6107bf818484610782565b505050565b5b818110156107e3576107d86000826107ac565b6001810190506107c5565b5050565b601f821115610828576107f9816106c8565b610802846106dd565b81016020851015610811578190505b61082561081d856106dd565b8301826107c4565b50505b505050565b600082821c905092915050565b600061084b6000198460080261082d565b1980831691505092915050565b6000610864838361083a565b9150826002028217905092915050565b61087d82610424565b67ffffffffffffffff811115610896576108956104f4565b5b6108a08254610697565b6108ab8282856107e7565b600060209050601f8311600181146108de57600084156108cc578287015190505b6108d68582610858565b86555061093e565b601f1984166108ec866106c8565b60005b82811015610914578489015182556001820191506020850194506020810190506108ef565b86831015610931578489015161092d601f89168261083a565b8355505b6001600288020188555050505b505050505050565b7f4e6f7420456e7566204361747300000000000000000000000000000000000000600082015250565b600061097c600d8361042f565b915061098782610946565b602082019050919050565b600060208201905081810360008301526109ab8161096f565b9050919050565b7f4e487b7100000000000000000000000000000000000000000000000000000000600052601160045260246000fd5b60006109ec826103f0565b91506109f7836103f0565b9250828201905080821115610a0f57610a0e6109b2565b5b92915050565b6000610a20826103f0565b91507fffffffffffffffffffffffffffffffffffffffffffffffffffffffffffffffff8203610a5257610a516109b2565b5b60018201905091905056fea264697066735822122017d45c20fb1b3325763a054b1b0ca5211922cb5e7351999b0de594664e24da1864736f6c63430008110033",
  "immutableReferences": {},
  "source": "// SPDX-License-Identifier: GPL-3.0\n\npragma solidity >=0.7.0 <0.9.0;\n\ncontract SimpleContract {\n\n    string public data;\n    uint256 nextId = 0;\n    uint256 public fund = 0;\n    uint256 countKucing = 4;\n\n    struct Kucing {\n        string name;\n        uint256 id;\n    }\n    \n    Kucing[] kucings;\n\n    function setData(string memory _data) public {\n        data = _data;\n    }\n\n    function getData() public view returns (string memory) {\n        return data;\n    }\n\n\n    function addKucing(string memory _name) public {\n        Kucing memory newKucing = Kucing(_name, nextId++);\n        kucings.push(newKucing);\n    }\n\n    modifier checkCountKucings() {\n        require(countKucing < totalKucing(), \"Not Enuf Cats\");\n        _;\n    }\n    // kita received fund kalau dh ade lebih drp 5 kucing\n    function receiveFund() external checkCountKucings {\n        //countKucing Increment for next fund receiving\n        countKucing += totalKucing();\n\n        //contract receive 5 dollar klu dh mematuhi syaratnya (checkCountKucings)\n        fund += 5;\n    }\n\n    function totalKucing() public virtual view returns (uint256 _totalKucing) {\n        return kucings.length;\n    }\n\n    function salam() public pure returns (string memory) {\n        return \"Assalamulaikum~Dunia\";\n    }\n\n\n}\n",
  "sourcePath": "/Applications/ProjectsApp/sandbox/sandbox_solidity/contracts/SimpleContract.sol",
  "compiler": {
    "name": "solc",
    "version": "0.8.17+commit.8df45f5f.Emscripten.clang"
  },
  "schemaVersion": "3.4.11",
  "updatedAt": "2022-12-04T16:00:26.455Z",
  "networkType": "ethereum",
  "devdoc": {
    "kind": "dev",
    "methods": {},
    "version": 1
  },
  "userdoc": {
    "kind": "user",
    "methods": {},
    "version": 1
  }
}