{
  "contractName": "Tickets",
  "abi": [
    {
      "inputs": [],
      "stateMutability": "nonpayable",
      "type": "constructor"
    },
    {
      "inputs": [],
      "name": "TOTAL_TICKETS",
      "outputs": [
        {
          "internalType": "uint256",
          "name": "",
          "type": "uint256"
        }
      ],
      "stateMutability": "view",
      "type": "function",
      "constant": true
    },
    {
      "inputs": [],
      "name": "owner",
      "outputs": [
        {
          "internalType": "address",
          "name": "",
          "type": "address"
        }
      ],
      "stateMutability": "view",
      "type": "function",
      "constant": true
    },
    {
      "inputs": [
        {
          "internalType": "uint256",
          "name": "",
          "type": "uint256"
        }
      ],
      "name": "tickets",
      "outputs": [
        {
          "internalType": "uint256",
          "name": "price",
          "type": "uint256"
        },
        {
          "internalType": "address",
          "name": "owner",
          "type": "address"
        }
      ],
      "stateMutability": "view",
      "type": "function",
      "constant": true
    },
    {
      "inputs": [
        {
          "internalType": "uint256",
          "name": "_index",
          "type": "uint256"
        }
      ],
      "name": "buyTicket",
      "outputs": [],
      "stateMutability": "payable",
      "type": "function",
      "payable": true
    }
  ],
  "bytecode": "0x6080604052336000806101000a81548173ffffffffffffffffffffffffffffffffffffffff021916908373ffffffffffffffffffffffffffffffffffffffff16021790555034801561005057600080fd5b5060005b600a8110156100f35767016345785d8a0000600182600a811061007a576100796100f9565b5b60020201600001819055506000600182600a811061009b5761009a6100f9565b5b6002020160010160006101000a81548173ffffffffffffffffffffffffffffffffffffffff021916908373ffffffffffffffffffffffffffffffffffffffff16021790555080806100eb90610161565b915050610054565b506101a9565b7f4e487b7100000000000000000000000000000000000000000000000000000000600052603260045260246000fd5b7f4e487b7100000000000000000000000000000000000000000000000000000000600052601160045260246000fd5b6000819050919050565b600061016c82610157565b91507fffffffffffffffffffffffffffffffffffffffffffffffffffffffffffffffff820361019e5761019d610128565b5b600182019050919050565b6103f6806101b86000396000f3fe60806040526004361061003f5760003560e01c806350b447121461004457806367dd74ca146100825780638da5cb5b1461009e578063afbd1782146100c9575b600080fd5b34801561005057600080fd5b5061006b600480360381019061006691906102b5565b6100f4565b604051610079929190610332565b60405180910390f35b61009c600480360381019061009791906102b5565b61013e565b005b3480156100aa57600080fd5b506100b3610251565b6040516100c0919061035b565b60405180910390f35b3480156100d557600080fd5b506100de610275565b6040516100eb9190610376565b60405180910390f35b600181600a811061010457600080fd5b600202016000915090508060000154908060010160009054906101000a900473ffffffffffffffffffffffffffffffffffffffff16905082565b600a8110801561014f575060008110155b61015857600080fd5b600073ffffffffffffffffffffffffffffffffffffffff16600182600a811061018457610183610391565b5b6002020160010160009054906101000a900473ffffffffffffffffffffffffffffffffffffffff1673ffffffffffffffffffffffffffffffffffffffff16146101cc57600080fd5b600181600a81106101e0576101df610391565b5b60020201600001543410156101f457600080fd5b33600182600a811061020957610208610391565b5b6002020160010160006101000a81548173ffffffffffffffffffffffffffffffffffffffff021916908373ffffffffffffffffffffffffffffffffffffffff16021790555050565b60008054906101000a900473ffffffffffffffffffffffffffffffffffffffff1681565b600a81565b600080fd5b6000819050919050565b6102928161027f565b811461029d57600080fd5b50565b6000813590506102af81610289565b92915050565b6000602082840312156102cb576102ca61027a565b5b60006102d9848285016102a0565b91505092915050565b6102eb8161027f565b82525050565b600073ffffffffffffffffffffffffffffffffffffffff82169050919050565b600061031c826102f1565b9050919050565b61032c81610311565b82525050565b600060408201905061034760008301856102e2565b6103546020830184610323565b9392505050565b60006020820190506103706000830184610323565b92915050565b600060208201905061038b60008301846102e2565b92915050565b7f4e487b7100000000000000000000000000000000000000000000000000000000600052603260045260246000fdfea2646970667358221220db313329eea910cbc6b96f9ed6b534428151244fe6c16f7169e91163f5b64e1764736f6c63430008110033",
  "immutableReferences": {},
  "source": "// SPDX-License-Identifier: GPL-3.0\n\npragma solidity >=0.7.0 <0.9.0;\n\n\n\ncontract Tickets {\n    address public owner = msg.sender;\n    uint256 constant public TOTAL_TICKETS = 10;\n\n    struct Ticket {\n        uint256 price;\n        address owner;\n    }\n\n    Ticket[TOTAL_TICKETS] public tickets;\n\n    constructor() {\n        for (uint256 index = 0; index < TOTAL_TICKETS; index++) {\n            tickets[index].price = 1e17; //0.1 ETH\n            tickets[index].owner = address(0x0);\n        }\n    }\n\n    function buyTicket(uint256 _index) external payable {\n        require(_index < TOTAL_TICKETS && _index >= 0);\n        require(tickets[_index].owner == address(0x0));\n        require(msg.value >= tickets[_index].price);\n        tickets[_index].owner = msg.sender;\n    }\n}\n",
  "sourcePath": "/Applications/ProjectsApp/sandbox/sandbox_solidity/contracts/Tickets.sol",
  "compiler": {
    "name": "solc",
    "version": "0.8.17+commit.8df45f5f.Emscripten.clang"
  },
  "schemaVersion": "3.4.11",
  "updatedAt": "2022-12-04T16:00:26.236Z",
  "networkType": "ethereum",
  "devdoc": {
    "kind": "dev",
    "methods": {},
    "version": 1
  },
  "userdoc": {
    "kind": "user",
    "methods": {},
    "version": 1
  }
}